{
  "contractName": "Campaign",
  "abi": [
    {
      "inputs": [
        {
          "internalType": "uint256",
          "name": "minimum",
          "type": "uint256"
        },
        {
          "internalType": "address",
          "name": "creator",
          "type": "address"
        }
      ],
      "stateMutability": "nonpayable",
      "type": "constructor"
    },
    {
      "inputs": [
        {
          "internalType": "address",
          "name": "",
          "type": "address"
        }
      ],
      "name": "approvers",
      "outputs": [
        {
          "internalType": "bool",
          "name": "",
          "type": "bool"
        }
      ],
      "stateMutability": "view",
      "type": "function"
    },
    {
      "inputs": [],
      "name": "approversCount",
      "outputs": [
        {
          "internalType": "uint256",
          "name": "",
          "type": "uint256"
        }
      ],
      "stateMutability": "view",
      "type": "function"
    },
    {
      "inputs": [],
      "name": "manager",
      "outputs": [
        {
          "internalType": "address",
          "name": "",
          "type": "address"
        }
      ],
      "stateMutability": "view",
      "type": "function"
    },
    {
      "inputs": [],
      "name": "minimumContribution",
      "outputs": [
        {
          "internalType": "uint256",
          "name": "",
          "type": "uint256"
        }
      ],
      "stateMutability": "view",
      "type": "function"
    },
    {
      "inputs": [
        {
          "internalType": "uint256",
          "name": "",
          "type": "uint256"
        }
      ],
      "name": "requests",
      "outputs": [
        {
          "internalType": "string",
          "name": "description",
          "type": "string"
        },
        {
          "internalType": "uint256",
          "name": "value",
          "type": "uint256"
        },
        {
          "internalType": "address",
          "name": "recipient",
          "type": "address"
        },
        {
          "internalType": "bool",
          "name": "complete",
          "type": "bool"
        },
        {
          "internalType": "uint256",
          "name": "approvalsCount",
          "type": "uint256"
        }
      ],
      "stateMutability": "view",
      "type": "function"
    },
    {
      "inputs": [],
      "name": "requestsCount",
      "outputs": [
        {
          "internalType": "uint256",
          "name": "",
          "type": "uint256"
        }
      ],
      "stateMutability": "view",
      "type": "function"
    },
    {
      "inputs": [],
      "name": "contribute",
      "outputs": [],
      "stateMutability": "payable",
      "type": "function"
    },
    {
      "inputs": [
        {
          "internalType": "string",
          "name": "description",
          "type": "string"
        },
        {
          "internalType": "uint256",
          "name": "value",
          "type": "uint256"
        },
        {
          "internalType": "address",
          "name": "recipient",
          "type": "address"
        }
      ],
      "name": "createRequest",
      "outputs": [],
      "stateMutability": "nonpayable",
      "type": "function"
    },
    {
      "inputs": [
        {
          "internalType": "uint256",
          "name": "requestIndex",
          "type": "uint256"
        }
      ],
      "name": "approveRequest",
      "outputs": [],
      "stateMutability": "nonpayable",
      "type": "function"
    },
    {
      "inputs": [
        {
          "internalType": "uint256",
          "name": "requestIndex",
          "type": "uint256"
        }
      ],
      "name": "finalizeRequest",
      "outputs": [],
      "stateMutability": "nonpayable",
      "type": "function"
    },
    {
      "inputs": [],
      "name": "getSummary",
      "outputs": [
        {
          "internalType": "uint256",
          "name": "",
          "type": "uint256"
        },
        {
          "internalType": "uint256",
          "name": "",
          "type": "uint256"
        },
        {
          "internalType": "uint256",
          "name": "",
          "type": "uint256"
        },
        {
          "internalType": "uint256",
          "name": "",
          "type": "uint256"
        },
        {
          "internalType": "address",
          "name": "",
          "type": "address"
        }
      ],
      "stateMutability": "view",
      "type": "function"
    }
  ],
  "bytecode": "0x60806040523480156200001157600080fd5b50604051620010753803806200107583398181016040528101906200003791906200012b565b806000806101000a81548173ffffffffffffffffffffffffffffffffffffffff021916908373ffffffffffffffffffffffffffffffffffffffff16021790555081600181905550505062000172565b600080fd5b6000819050919050565b620000a0816200008b565b8114620000ac57600080fd5b50565b600081519050620000c08162000095565b92915050565b600073ffffffffffffffffffffffffffffffffffffffff82169050919050565b6000620000f382620000c6565b9050919050565b6200010581620000e6565b81146200011157600080fd5b50565b6000815190506200012581620000fa565b92915050565b6000806040838503121562000145576200014462000086565b5b60006200015585828601620000af565b9250506020620001688582860162000114565b9150509250929050565b610ef380620001826000396000f3fe60806040526004361061009c5760003560e01c806382fde0931161006457806382fde093146101a25780638a9cfd55146101cd578063937e09b1146101f6578063d7bb99ba14610221578063d7d1bbdb1461022b578063fbfa4b7f146102545761009c565b806303441006146100a15780630a144391146100ca5780634051ddac14610107578063481c6a751461013657806381d12c5814610161575b600080fd5b3480156100ad57600080fd5b506100c860048036038101906100c39190610958565b61027f565b005b3480156100d657600080fd5b506100f160048036038101906100ec91906109e3565b6103b7565b6040516100fe9190610a2b565b60405180910390f35b34801561011357600080fd5b5061011c6103d7565b60405161012d959493929190610a64565b60405180910390f35b34801561014257600080fd5b5061014b61041b565b6040516101589190610ab7565b60405180910390f35b34801561016d57600080fd5b5061018860048036038101906101839190610958565b61043f565b604051610199959493929190610b6b565b60405180910390f35b3480156101ae57600080fd5b506101b761052a565b6040516101c49190610bc5565b60405180910390f35b3480156101d957600080fd5b506101f460048036038101906101ef9190610d15565b610530565b005b34801561020257600080fd5b5061020b610647565b6040516102189190610bc5565b60405180910390f35b61022961064d565b005b34801561023757600080fd5b50610252600480360381019061024d9190610958565b610727565b005b34801561026057600080fd5b50610269610865565b6040516102769190610bc5565b60405180910390f35b60008054906101000a900473ffffffffffffffffffffffffffffffffffffffff1673ffffffffffffffffffffffffffffffffffffffff163373ffffffffffffffffffffffffffffffffffffffff16146102d757600080fd5b6000600560008381526020019081526020016000209050600280546102fc9190610de2565b81600301541161030b57600080fd5b8060020160149054906101000a900460ff161561032757600080fd5b8060020160009054906101000a900473ffffffffffffffffffffffffffffffffffffffff1673ffffffffffffffffffffffffffffffffffffffff166108fc82600101549081150290604051600060405180830381858888f19350505050158015610395573d6000803e3d6000fd5b5060018160020160146101000a81548160ff0219169083151502179055505050565b60036020528060005260406000206000915054906101000a900460ff1681565b60008060008060006001544760045460025460008054906101000a900473ffffffffffffffffffffffffffffffffffffffff16945094509450945094509091929394565b60008054906101000a900473ffffffffffffffffffffffffffffffffffffffff1681565b600560205280600052604060002060009150905080600001805461046290610e42565b80601f016020809104026020016040519081016040528092919081815260200182805461048e90610e42565b80156104db5780601f106104b0576101008083540402835291602001916104db565b820191906000526020600020905b8154815290600101906020018083116104be57829003601f168201915b5050505050908060010154908060020160009054906101000a900473ffffffffffffffffffffffffffffffffffffffff16908060020160149054906101000a900460ff16908060030154905085565b60025481565b60008054906101000a900473ffffffffffffffffffffffffffffffffffffffff1673ffffffffffffffffffffffffffffffffffffffff163373ffffffffffffffffffffffffffffffffffffffff161461058857600080fd5b600060056000600460008154809291906105a190610e74565b9190505581526020019081526020016000209050838160000190805190602001906105cd92919061086b565b50828160010181905550818160020160006101000a81548173ffffffffffffffffffffffffffffffffffffffff021916908373ffffffffffffffffffffffffffffffffffffffff16021790555060008160020160146101000a81548160ff0219169083151502179055506000816003018190555050505050565b60015481565b600154341161065b57600080fd5b60001515600360003373ffffffffffffffffffffffffffffffffffffffff1673ffffffffffffffffffffffffffffffffffffffff16815260200190815260200160002060009054906101000a900460ff1615151415610725576001600360003373ffffffffffffffffffffffffffffffffffffffff1673ffffffffffffffffffffffffffffffffffffffff16815260200190815260200160002060006101000a81548160ff0219169083151502179055506002600081548092919061071f90610e74565b91905055505b565b6000600560008381526020019081526020016000209050600360003373ffffffffffffffffffffffffffffffffffffffff1673ffffffffffffffffffffffffffffffffffffffff16815260200190815260200160002060009054906101000a900460ff1661079457600080fd5b8060040160003373ffffffffffffffffffffffffffffffffffffffff1673ffffffffffffffffffffffffffffffffffffffff16815260200190815260200160002060009054906101000a900460ff16156107ed57600080fd5b60018160040160003373ffffffffffffffffffffffffffffffffffffffff1673ffffffffffffffffffffffffffffffffffffffff16815260200190815260200160002060006101000a81548160ff02191690831515021790555080600301600081548092919061085c90610e74565b91905055505050565b60045481565b82805461087790610e42565b90600052602060002090601f01602090048101928261089957600085556108e0565b82601f106108b257805160ff19168380011785556108e0565b828001600101855582156108e0579182015b828111156108df5782518255916020019190600101906108c4565b5b5090506108ed91906108f1565b5090565b5b8082111561090a5760008160009055506001016108f2565b5090565b6000604051905090565b600080fd5b600080fd5b6000819050919050565b61093581610922565b811461094057600080fd5b50565b6000813590506109528161092c565b92915050565b60006020828403121561096e5761096d610918565b5b600061097c84828501610943565b91505092915050565b600073ffffffffffffffffffffffffffffffffffffffff82169050919050565b60006109b082610985565b9050919050565b6109c0816109a5565b81146109cb57600080fd5b50565b6000813590506109dd816109b7565b92915050565b6000602082840312156109f9576109f8610918565b5b6000610a07848285016109ce565b91505092915050565b60008115159050919050565b610a2581610a10565b82525050565b6000602082019050610a406000830184610a1c565b92915050565b610a4f81610922565b82525050565b610a5e816109a5565b82525050565b600060a082019050610a796000830188610a46565b610a866020830187610a46565b610a936040830186610a46565b610aa06060830185610a46565b610aad6080830184610a55565b9695505050505050565b6000602082019050610acc6000830184610a55565b92915050565b600081519050919050565b600082825260208201905092915050565b60005b83811015610b0c578082015181840152602081019050610af1565b83811115610b1b576000848401525b50505050565b6000601f19601f8301169050919050565b6000610b3d82610ad2565b610b478185610add565b9350610b57818560208601610aee565b610b6081610b21565b840191505092915050565b600060a0820190508181036000830152610b858188610b32565b9050610b946020830187610a46565b610ba16040830186610a55565b610bae6060830185610a1c565b610bbb6080830184610a46565b9695505050505050565b6000602082019050610bda6000830184610a46565b92915050565b600080fd5b600080fd5b7f4e487b7100000000000000000000000000000000000000000000000000000000600052604160045260246000fd5b610c2282610b21565b810181811067ffffffffffffffff82111715610c4157610c40610bea565b5b80604052505050565b6000610c5461090e565b9050610c608282610c19565b919050565b600067ffffffffffffffff821115610c8057610c7f610bea565b5b610c8982610b21565b9050602081019050919050565b82818337600083830152505050565b6000610cb8610cb384610c65565b610c4a565b905082815260208101848484011115610cd457610cd3610be5565b5b610cdf848285610c96565b509392505050565b600082601f830112610cfc57610cfb610be0565b5b8135610d0c848260208601610ca5565b91505092915050565b600080600060608486031215610d2e57610d2d610918565b5b600084013567ffffffffffffffff811115610d4c57610d4b61091d565b5b610d5886828701610ce7565b9350506020610d6986828701610943565b9250506040610d7a868287016109ce565b9150509250925092565b7f4e487b7100000000000000000000000000000000000000000000000000000000600052601260045260246000fd5b7f4e487b7100000000000000000000000000000000000000000000000000000000600052601160045260246000fd5b6000610ded82610922565b9150610df883610922565b925082610e0857610e07610d84565b5b828204905092915050565b7f4e487b7100000000000000000000000000000000000000000000000000000000600052602260045260246000fd5b60006002820490506001821680610e5a57607f821691505b60208210811415610e6e57610e6d610e13565b5b50919050565b6000610e7f82610922565b91507fffffffffffffffffffffffffffffffffffffffffffffffffffffffffffffffff821415610eb257610eb1610db3565b5b60018201905091905056fea2646970667358221220a2316a794fb64548678c0d7c0b55bf6e1e0d0ff4c48536906774c8029d8b697864736f6c634300080a0033",
  "immutableReferences": {},
  "source": "// SPDX-License-Identifier: GPL-3.0\r\npragma solidity >=0.7.0 <0.9.0;\r\n\r\ncontract CampaignFactory {\r\n    address[] deployedCampaigns;\r\n\r\n    function createCampaign(uint256 minimum) public {\r\n        address newCampaign = address(new Campaign(minimum, msg.sender)); // create a new instance of a contract\r\n        deployedCampaigns.push(newCampaign);\r\n    }\r\n\r\n    function getDeployedCampaigns() public view returns (address[] memory) {\r\n        return deployedCampaigns;\r\n    }\r\n}\r\n\r\ncontract Campaign {\r\n    struct Request {\r\n        // unlike the other varibles that are instantiated and can be used immediately everywhere, the struct is defined but not instantiated since it is like defining a new type not variable (like typescript interface)\r\n        string description;\r\n        uint256 value;\r\n        address recipient;\r\n        bool complete;\r\n        uint256 approvalsCount;\r\n        mapping(address => bool) approvals;\r\n    }\r\n\r\n    // arrays are good for iterating and lookups (not for search -> high gas fees loops -> O(n) - mappings are good to search one item in a list (hash tables - O(1) - not iterable\r\n    // in mappings, if a value doesn't exists it returns the falsy version of the value type (eg. int -> 0, bool -> false, string -> '') inlike JS objects where is returns undefined\r\n    // keys are not stored in mappings, but are converted to hash indexes when first added to the list\r\n\r\n    address public manager;\r\n    uint256 public minimumContribution;\r\n    uint256 public approversCount;\r\n    mapping(address => bool) public approvers;\r\n    uint256 public requestsCount;\r\n    mapping(uint256 => Request) public requests;\r\n\r\n    modifier managerOnly() {\r\n        require(msg.sender == manager);\r\n        _;\r\n    }\r\n\r\n    constructor(uint256 minimum, address creator) {\r\n        manager = creator;\r\n        minimumContribution = minimum;\r\n    }\r\n\r\n    function contribute() public payable {\r\n        require(msg.value > minimumContribution);\r\n        if (approvers[msg.sender] == false) {\r\n            approvers[msg.sender] = true;\r\n            approversCount++;\r\n        }\r\n    }\r\n\r\n    function createRequest(\r\n        string memory description,\r\n        uint256 value,\r\n        address recipient\r\n    ) public managerOnly {\r\n        Request storage newRequest = requests[requestsCount++];\r\n        newRequest.description = description;\r\n        newRequest.value = value;\r\n        newRequest.recipient = recipient;\r\n        newRequest.complete = false;\r\n        newRequest.approvalsCount = 0; // no need to initialize the reference types (mappings, etc.), only the value types (bool, string, uint...)\r\n    }\r\n\r\n    function approveRequest(uint256 requestIndex) public {\r\n        Request storage currentRequest = requests[requestIndex]; //storage because we want to manipulate the original Request struct, not create a copy\r\n\r\n        require(approvers[msg.sender]);\r\n        require(!currentRequest.approvals[msg.sender]);\r\n\r\n        currentRequest.approvals[msg.sender] = true;\r\n        currentRequest.approvalsCount++;\r\n    }\r\n\r\n    function finalizeRequest(uint256 requestIndex) public managerOnly {\r\n        Request storage currentRequest = requests[requestIndex];\r\n        require(currentRequest.approvalsCount > (approversCount / 2));\r\n        require(!currentRequest.complete);\r\n\r\n        payable(currentRequest.recipient).transfer(currentRequest.value);\r\n        currentRequest.complete = true;\r\n    }\r\n\r\n    function getSummary()\r\n        public\r\n        view\r\n        returns (\r\n            uint256,\r\n            uint256,\r\n            uint256,\r\n            uint256,\r\n            address\r\n        )\r\n    {\r\n        return (\r\n            minimumContribution,\r\n            address(this).balance, // contract balance\r\n            requestsCount,\r\n            approversCount,\r\n            manager\r\n        );\r\n    }\r\n}\r\n",
  "sourcePath": "C:\\Users\\Sara\\Desktop\\kickstarter-clone\\public\\contracts\\Campaign.sol",
  "compiler": {
    "name": "solc",
    "version": "0.8.10+commit.fc410830.Emscripten.clang"
  },
  "schemaVersion": "3.4.4",
  "updatedAt": "2022-01-19T19:30:25.901Z",
  "devdoc": {
    "kind": "dev",
    "methods": {},
    "version": 1
  },
  "userdoc": {
    "kind": "user",
    "methods": {},
    "version": 1
  }
}